:020000040800F2
:1000000078240020D501000815110008890B00088C
:1000100011110008510B00084D13000800000000EA
:10002000000000000000000000000000E5110008D2
:10003000550B000800000000E1110008F90100085C
:10004000EF010008EF010008EF010008EF010008D0
:10005000EF010008EF010008EF010008EF010008C0
:10006000EF010008EF010008EF010008EF010008B0
:10007000EF010008EF010008EF010008EF010008A0
:10008000EF010008EF010008EF010008EF01000890
:10009000EF010008EF010008EF010008EF01000880
:1000A000EF010008EF010008EF010008EF01000870
:1000B00000000000EF010008EF010008EF01000858
:1000C000EF010008EF010008EF010008EF01000850
:1000D000EF010008BD120008C11200080000000076
:1000E000EF010008EF010008000000000000000020
:1000F0000000000000000000000000000000000000
:1001000000000000000000000000000000000000EF
:100110000000000000000000EF010008EF010008EF
:1001200000000000000000000000000000000000CF
:1001300000000000000000000000000000000000BF
:10014000EF010008000000000000000000000000B7
:10015000000000000000000000000000000000009F
:10016000000000000000000000000000000000008F
:10017000000000000000000000000000000000007F
:1001800000000000EF010008000000000000000077
:10019000000000000000000000000000000000005F
:1001A000000000000000000000000000000000004F
:1001B0000000000000000000EF010008DFF810D090
:1001C00000F0A6FA00F0C4FB0048004731E4000844
:1001D000782400200648804706488047FEE7FEE76F
:1001E000FEE7FEE7FEE7FEE7FEE7FEE7FEE7FEE7E7
:1001F000FD110008BD01000830B410B50348804768
:1002000030BCAE4630BC02480047704785E6000867
:10021000E911000830B50B460146002020220124D8
:1002200009E021FA02F59D4205D303FA02F5491BC4
:1002300004FA02F52844151EA2F10102F1DC30BDDA
:100240002DE9F05F0546002092469B46884606460B
:10025000814640241BE0284641464746224600F09E
:100260007EFA53465A46C01A914110D31146184699
:10027000224600F065FA2D1A67EB01084F46224628
:100280000120002100F05CFA17EB00094E41201E0E
:10029000A4F10104DFDC484631462A464346BDE866
:1002A000F09F40EA01039B0703D009E008C9121F31
:1002B00008C0042AFAD203E011F8013B00F8013B20
:1002C000521EF9D2704710B541000CD0C0F3C7518F
:1002D000962908DC7E2909DC06DB410204D000F007
:1002E000004040F07E5010BD002010BDC1F19604CA
:1002F000C4F1200100FA01F1E04000F052FAA04000
:1003000010BDF0B400F0004221F0004120F00040A8
:10031000CE0DC30DC1F3160141F40001C0F3160068
:100320004C42154640F40000761E09E010EB4400F4
:1003300002D582F0004240428842F7D840005B1E5E
:10034000B342F9DA18B1F0BC002100F033BA284604
:10035000F0BC70472DE9FE4F804681EA0300C00FD4
:100360000C46009021F0004123F00045B8EB02005C
:10037000A94105D24046214690461C460B460246FE
:1003800023F00040104347D0270DC7F30A00C3F302
:100390000A510290401A019040286BDAC3F313000F
:1003A00040F4801B0098924620B10023D2EB030A50
:1003B00063EB0B0B01985946C0F14002504600F028
:1003C000BFF906460D4650465946019A00F0D7F946
:1003D00010EB08006141002487EA115284EAE773B8
:1003E0001A4340D0009A62B3019A012A4FEA075299
:1003F00015DC001B61EB02014FF0004202EA0752DC
:10040000CDE90042001C41F5801132462B4600F038
:100410000EFA03B0BDE8F08F40462146F9E7001B15
:1004200061EB0201001C41F5801300185B412018AC
:10043000A2F5001747EB030140EAD570B6196D41EC
:1004400011E06D084FEA360645EAC0754FEA0752DB
:10045000001B61EB0201001C41F5801149084FEAC5
:1004600030000019514132462B4603B0BDE8F04F31
:1004700000F0CEB90098012240000023D0EB020228
:1004800063EBE073009821464FEAE074B8EB00009C
:1004900061EB0401E9E783F000435BE781F0004191
:1004A00058E72DE9FE4F81EA030404F0004421F0EF
:1004B000004100944FF0000B23F0004350EA010488
:1004C0005ED052EA03045BD0C3F30A54C1F30A5569
:1004D0002C44A4F2F3340194A0FB0254C1F31301A1
:1004E00041F48011C3F3130343F4801301FB02446E
:1004F00000FB034E840A970A44EA815447EA835773
:10050000A4FB076802958D0A05FB07854FEA932C2B
:1005100004FB0C542705029D4FEA065847EA16379C
:10052000B5EB08056EEB070C870E920E47EA8117B4
:1005300042EA8312A7FB0201B6EB0B0164EB000455
:100540002B0D43EA0C335E1844EB1C50DA4651463F
:10055000E7FB0201C5F313044FEA0B3343EA1453DC
:100560004FEA0432019C43EA0603A4F10C0402940E
:10057000009CCDE900B400F05AF903B0BDE8F08F5B
:1005800000200146F9E72DE9F04D81EA030404F06B
:10059000004B21F0004514464FF0000A23F00041C3
:1005A00050EA050220D054EA01021DD0C5F30A57D3
:1005B0000246C5F31303C1F31300C1F30A5640F416
:1005C000801543F48013A7EB0608101BD64608F2EB
:1005D000FD3873EB050002D308F1010801E0921821
:1005E0005B41B8F1000F03DA00200146BDE8F08D51
:1005F00000204FF48011064684460EE0171B73EB73
:10060000050705D3121B63EB050306434CEA010CF7
:1006100049084FEA300092185B4150EA0107EDD1DA
:1006200052EA030012D082EA040083EA050108437B
:1006300005D0101BAB4106D20122002306E00022A8
:100640004FF0004302E06FF0010253101AEB060076
:100650004CEB085110EB0A0041EB0B01BDE8F04DEB
:1006600000F0D6B8C1F30A52C1F3130140F2FF33D0
:1006700041F480119A4202DA00200146704740F2AC
:1006800033439A42A2F2334202DC524200F067B88E
:1006900000F056B810B500F0004420F00040C20D44
:1006A000C0F3160040F400007F2A07DA7D2A00DA42
:1006B0007D22763A00FA02F1002008E0962A09DC51
:1006C000A2F1760100FA01F1C2F19602D04000F0E9
:1006D00068F801E0963A9040002C00D0404210BDEE
:1006E00030B5041E71F1000404DB4FF000444042B9
:1006F00064EB0101141E73F1000405DB1C464FF08E
:100700000043524263EB0403994208BF904230BD5C
:100710001CB509480090094801900546009C06E078
:10072000E06840F0010394E8070098471034AC42B9
:10073000F6D3FFF747FD0000982E0108B82E0108F8
:10074000202A04DB203A00FA02F100207047914091
:10075000C2F1200320FA03F3194390407047202A86
:1007600004DB203A21FA02F00021704721FA02F35B
:10077000D040C2F120029140084319467047202A18
:1007800006DBCB17203A41FA02F043EAE07306E0B9
:1007900041FA02F3D040C2F12002914008431946C9
:1007A00070470029A8BF7047401C490008BF20F0CF
:1007B0000100704710B4B0FA80FC00FA0CF050EA67
:1007C000010404BF10BC704749B1CCF1200421FAE8
:1007D00004F411FA0CF118BF012121430843A3EBE3
:1007E0000C01CB1D4FEA00614FEA102042BF0020F0
:1007F00010BC704700EBC35010440029A4BF10BCCC
:100800007047401C490008BF20F0010010BC704731
:1008100010B5141E73F1000408DA401C41F1000108
:1008200092185B411A4301D120F0010010BD2DE95F
:10083000F04D92469B4611B1B1FA81F202E0B0FA56
:1008400080F220329046FFF77BFF04460F4640EAD5
:100850000A0041EA0B0153465A46084313D0114699
:1008600053EA010019D0C8F140025046FFF777FF64
:1008700005460E46504659464246FFF761FF08437B
:1008800005D0012004E020463946BDE8F08D002067
:10089000054346EAE0762C4337430A986305E40AA9
:1008A000A0EB08000022FD0A44EA47540A3002D5B2
:1008B00000200146E9E7010510196941DDE9084515
:1008C00000196941BDE8F04DA2E72DE9F04100248F
:1008D000061B254671F1000605DA01240027D0EB3E
:1008E000070067EB0101161E73F1000605DA002709
:1008F000D2EB0702012567EB0303FFF7A1FC864655
:100900000E4617469C46AC4204D00025D0EB050E9F
:1009100065EB010624B10020D2EB000760EB030C6D
:10092000704631463A466346BDE8F081D2B201E0F6
:1009300000F8012B491EFBD270470022F6E710B5E4
:1009400013460A4604461946FFF7F0FF204610BD3D
:100950007CB507480090074801900546009C04E0DC
:100960002046016808448047241DAC42F8D17CBD74
:10097000243101082831010830B5041E71F100044A
:1009800004DB4FF00044404264EB0101141E73F19C
:10099000000405DB1C464FF00043524263EB0403A6
:1009A000801A994101D2012030BD002030BD3EB5F2
:1009B000CA17CB0F002450405140C0186141DA07DC
:1009C00040F233430094CDE9012322462346FFF74A
:1009D0002EFF03B030BD0EB540F23342029200222A
:1009E000CDE900221346FFF722FF03B000BD00F05F
:1009F000004230F000400AD0C10D01F56071C0F333
:100A0000160042EA0151C208400711437047002016
:100A10000146704701F0004330B421F0004150EA34
:100A2000010206D00A0DA2F56072C1F31301002A7B
:100A300002DC30BC00207047440F44EAC104C1000E
:100A4000E01830BC00EBC250FFF7ABBE30B58C18DD
:100A500010F8012B12F00F0301D110F8013B12091D
:100A600006D110F8012B03E010F8015B01F8015BDF
:100A70005B1EF9D101E001F8013B521EFBD1A142FE
:100A8000E6D3002030BD000084B0039002910192B3
:100A9000039808B1FFE70BE042F6A350C0F601004F
:100AA00042F69C01C0F601014FF4E57200F0DCFC57
:100AB000029808B1FFE70BE042F60950C0F60100CA
:100AC00042F69C01C0F6010140F2CB1200F0CCFCD2
:100AD000019808B1FFE70BE042F66910C0F601008B
:100AE00042F69C01C0F601014FF4E67200F0BCFC36
:100AF000039800900298002141610161C16081600A
:100B0000416001600298039A126982600398029A18
:100B1000D0600298027842F0040202700398008AC2
:100B2000029A1082029841820398408A0299888230
:100B3000019800780099096A401A0399498A484344
:100B40000299C880029801218175029804B070470B
:100B5000FFE7FEE77047000080B586B0DDF820C0F3
:100B60000590049103920293BDF81400BDF8101093
:100B7000BDF80C20BDF80830DDF820C0CDF800C06D
:100B800000F0CEF906B080BDFFE7FEE780B582B089
:100B9000ADF80600ADF80410ADF80220ADF8003055
:100BA0002A2000F045FABDF8060000F013FABDF85F
:100BB000020000F00FFA2B2000F03AFABDF8040012
:100BC00000F008FABDF8000000F004FA2C2000F054
:100BD0002FFA02B080BD000080B582B04FF6FF70E2
:100BE000ADF80600BDF8060000F002F802B080BDC6
:100BF00080B586B00021ADF81610ADF814104FF492
:100C0000A071ADF81210F021ADF81010ADF80E0083
:100C10000120ADF80A00BDF80E00ADF80C00BDF8DB
:100C20001200BDF81610401ABDF81010BDF81420BF
:100C3000891A48430190BDF81600BDF81410BDF89C
:100C40001220013ABDF81030013B92B29BB2FFF77F
:100C50009DFF41F20040C4F202004FF480710DF09C
:100C6000EBF9FFE7BDF80A00C0B1FFE701984FF6C6
:100C7000FF71884207D3FFE701984FF6FE71401AD3
:100C80000190009105E00020ADF80A000198009065
:100C9000FFE7009903A80DF061FFE3E741F2004090
:100CA000C4F202004FF480710DF0D0F906B080BD9F
:100CB00010B541F20044C4F2020420464FF4007122
:100CC0000DF0BAF9C8200EF037FF20464FF400713E
:100CD0000DF0BCF978200EF02FFF20464FF4806114
:100CE0000DF0B4F964200EF027FF00F0F1F9CF20E9
:100CF00000F09EF9002000F091F9D92000F08EF963
:100D0000302000F08BF9ED2000F092F9642000F023
:100D100085F9032000F082F9122000F07FF981208C
:100D200000F07CF9E82000F083F9852000F076F9E6
:100D3000102000F073F97A2000F070F9CB2000F059
:100D400077F9392000F06AF92C2000F067F90020CB
:100D500000F064F9342000F061F9022000F05EF93F
:100D6000F72000F065F9202000F058F9EA2000F0A3
:100D70005FF9002000F052F9002000F04FF9C02088
:100D800000F056F91B2000F049F9C12000F050F99D
:100D9000122000F043F9C52000F04AF9082000F0C5
:100DA0003DF9262000F03AF9C72000F041F9B720BC
:100DB00000F034F9362000F03BF9082000F02EF95D
:100DC0003A2000F035F9052000F028F9B12000F0B4
:100DD0002FF9002000F022F91A2000F01FF9B620A8
:100DE00000F026F90A2000F019F9A22000F016F907
:100DF000F22000F01DF9002000F010F9262000F08C
:100E000017F9012000F00AF9E02000F011F90F2095
:100E100000F004F91D2000F001F91A2000F0FEF89E
:100E20000A2000F0FBF80D2000F0F8F8072000F091
:100E3000F5F8492000F0F2F8662000F0EFF83B20CA
:100E400000F0ECF8072000F0E9F8112000F0E6F8D7
:100E5000012000F0E3F8092000F0E0F8052000F0A0
:100E6000DDF8042000F0DAF8E12000F0E1F80020DD
:100E700000F0D4F8182000F0D1F81D2000F0CEF8D2
:100E8000022000F0CBF80F2000F0C8F8042000F09A
:100E9000C5F8362000F0C2F8132000F0BFF84C204F
:100EA00000F0BCF8072000F0B9F8132000F0B6F805
:100EB0000F2000F0B3F82E2000F0B0F82F2000F043
:100EC000ADF8052000F0AAF82B2000F0B1F80020C2
:100ED00000F0A4F8002000F0A1F8012000F09EF836
:100EE0003F2000F09BF82A2000F0A2F8002000F03C
:100EF00095F8002000F092F8002000F08FF8EF2025
:100F000000F08CF8212000F093F8112000F090F808
:100F100078200EF011FE292000F08AF810BD0000A4
:100F200080B586B0DDF820C0ADF81600ADF814101D
:100F3000ADF81220ADF8103001208DF80F00BDF88B
:100F40001200BDF81010484340000290BDF8160092
:100F5000BDF81410BDF812200244013ABDF810305B
:100F60000B44013B92B29BB2FFF710FE41F20040EE
:100F7000C4F202004FF480710DF05EF8FFE79DF8B7
:100F80000F00E8B1FFE702984FF6FF71884207D3E0
:100F9000FFE702984FF6FE71401A0290019105E0BA
:100FA00000208DF80F0002980190FFE70898019942
:100FB0000DF064FD08984FF6FE7108440890DEE7D6
:100FC00041F20040C4F202004FF480710DF03EF88F
:100FD00006B080BD10B582B0ADF8060040F6000046
:100FE000C4F202004FF400510DF030F841F2004419
:100FF000C4F2020420464FF480710DF01DF89DF8F4
:10100000070000F03BF89DF8060000F037F8204696
:101010004FF480710DF01AF802B010BD80B582B0A7
:101020008DF807009DF8070000F028F802B080BD99
:10103000B0B582B08DF8070040F60004C4F2020497
:1010400020464FF400510CF0F7FF41F20045C4F286
:10105000020528464FF480710CF0EEFF9DF8070062
:1010600000F00CF828464FF480710CF0EFFF20469A
:101070004FF400510CF0EAFF02B0B0BD10B582B0E1
:101080008DF8070041F20044C4F2020420464FF4F8
:1010900080710CF0D1FF9DF807000DF06DFF204628
:1010A0004FF480710CF0D2FF02B010BD80B582B059
:1010B00036218DF80710ADF804009DF80700FFF702
:1010C000B7FFBDF80400FFF785FF02B080BD000048
:1010D00080B582B001208DF807009DF80700032835
:1010E00013D8DFE800F002060A0E0820FFF7DEFF43
:1010F0000CE06820FFF7DAFF08E0C820FFF7D6FF12
:1011000004E0A820FFF7D2FF00E0FFE702B080BDB7
:10111000FFE7FEE77047000086B0059004910020CD
:101120000390059800F0070002900298C0F10700B4
:10113000052802D3FFE7042003E00298C0F107006E
:10114000FFE7019002980430062802D8FFE700204C
:1011500002E002980338FFE7009004980199012209
:1011600002FA01F10139084000998840039B02FA14
:1011700001F101391940084306B0704786B0059067
:1011800004910392059800F0070002900298C0F1C4
:101190000700052802D3FFE7042003E00298C0F10E
:1011A0000700FFE7019002980430062802D8FFE705
:1011B000002002E002980338FFE7009004980199AC
:1011C000012202FA01F10139084000998840039B8D
:1011D00002FA01F101391940084306B070470000D6
:1011E000704700007047000080B541F66020C2F2F1
:1011F0000000006880470EF035FF80BD4EF6885035
:10120000CEF20000016841F47001016043F6000075
:10121000C4F20200016841F001010160FFE743F6FA
:101220000000C4F202000068C0F34000012801D0B1
:10123000FFE7F4E743F60800C4F20200016821F07A
:1012400003010160FFE743F60800C4F202000068F2
:101250008008800708B1FFE7F5E743F60800C4F20D
:1012600002004FF08041016043F60000C4F202002A
:1012700001684FF6FF72CFF6F2621140016043F64B
:101280000400C4F2020043F20201C0F20301016053
:1012900043F6A000C4F202004FF47121016043F64E
:1012A0000C00C4F202004FF41F0101604EF608501A
:1012B000CEF200004FF000610160704770470000FF
:1012C00080B582B044F20C40C4F2000000684009CE
:1012D000C007A0B1FFE720200EF092FA70B1FFE73F
:1012E0000EF02CFAC0B20DF01DFB41F63820C2F210
:1012F00000000421017301214173FFE7FFE744F27D
:101300000C40C4F2000000688009C007D8B1FFE7B4
:1013100040200EF075FAA8B1FFE70EF041FA0DF18A
:1013200007000DF0D5FA28B9FFE79DF807000EF089
:1013300011FA06E041F63820C2F2000000214177A0
:10134000FFE7FFE7FFE702B080BD0000FFE7FEE731
:1013500081B08DF803009DF9030000280FD4FFE74A
:101360009DF9030000F01F01012202FA01F140097A
:101370004EF20012CEF2000242F82010FFE701B058
:10138000704700004EF60C50CEF200000068C0F32B
:10139000022070474EF60C50CEF200000068C0F3F9
:1013A0000220704782B08DF8070000919DF9070078
:1013B00000280AD4FFE7009800019DF907104EF2BB
:1013C0000042CEF2000288540BE0009800019DF824
:1013D000071001F00F014EF61452CEF200028854AD
:1013E000FFE702B07047000082B08DF8070000915F
:1013F0009DF9070000280AD4FFE7009800019DF935
:1014000007104EF20042CEF2000288540BE0009822
:1014100000019DF8071001F00F014EF61452CEF2B4
:1014200000028854FFE702B07047000083B00290CA
:10143000029800F0070000904EF60C50CEF200002B
:101440000168019101994FF6FF0211400191019944
:10145000009A41EA02210022C0F2FA52114301919E
:101460000199016003B0704788B00790069105921A
:1014700042F2D410C0F6010040F20404C2F20004AB
:1014800021460FF0C9FB079821460FF0C5FB42F239
:10149000EB10C0F6010021460FF0BEFB0698214676
:1014A0000FF0BAFB42F2F310C0F6010021460FF034
:1014B000B3FB02A80C3001900198411E019100215C
:1014C00000F8011C0198411E01910A2100F8011C3D
:1014D000FFE7059801281CDBFFE7059846F26761E6
:1014E000C6F2666150FB01F2930803EBD27202EB85
:1014F0008202A0EB42003030019A531E019302F8A1
:10150000010C059850FB01F0811001EBD0700590A3
:10151000DFE7019840F20401C2F200010FF07CFB0A
:1015200008F09AFC80B584B0039002918DF80720F2
:10153000029841420140814201D1FFE70AE042F6B0
:101540008730C0F6010042F2D951C0F60101BA223B
:10155000FFF78AFF03980FF093FB00900098029921
:101560000139084201D1FFE70AE042F20920C0F642
:10157000010042F2D951C0F60101BD22FFF774FF0C
:10158000009804B080BD000080B582B00190019841
:1015900040680090009838B9FFE740F2A810C2F206
:1015A000000020300090FFE7009840680078C0F30A
:1015B0004200032801D1FFE70BE042F29340C0F65E
:1015C000010042F6FD01C0F6010140F27D12FFF775
:1015D0004BFF009B019AD068B2F914101C3293F8AB
:1015E000203001F027FF002002B080BD10B586B08A
:1015F00005900020049003918DF80B2001208DF8B8
:101600000A00059860B9FFE742F60520C0F6010020
:1016100042F27951C0F6010141F2BB02FFF724FF0B
:101620000598417C01F0FE0141740598417C41F030
:10163000020141749DF80B00FF280BD1FFE70598CC
:10164000002101740598418A41F0080121F004014C
:10165000418233E0039860B9FFE742F60520C0F607
:10166000010042F27951C0F6010141F2CE02FFF7CA
:10167000FBFE059803990A684968C1608260049876
:1016800080B1FFE79DF80A00C00758B9FFE7059C45
:101690000498A16809F010F9CDF80600DDF80600FD
:1016A000A060FFE79DF80B00059908740598418A32
:1016B00041F0040121F008014182FFE706B010BDAE
:1016C00080B582B08DF80700009100980FF0B0FA55
:1016D00002B080BD86B005900491059808B1FFE77F
:1016E0000BE042F64060C0F6010042F27951C0F6CC
:1016F000010140F2BB32FFF7B7FE049808B1FFE7E3
:101700000BE042F66730C0F6010042F27951C0F6B4
:1017100001014FF46F72FFF7A7FE0598039005983B
:10172000006848B3FFE70498B0F90C10B0F90E0058
:1017300048430290FFE70598006801900198B0F9CE
:101740000C10B0F90E0048430090009802998842AE
:1017500008D8FFE70598006804994860049805993F
:10176000086011E0019804300590FFE705980068D3
:101770000028E0D1FFE7FFE705980068049948607A
:10178000049805990860FFE706B0704780B588B0F7
:1017900005900491059808B1FFE70BE042F62F5041
:1017A000C0F6010042F27951C0F6010140F2413227
:1017B000FFF75AFE049808B9FFE74BE00498807CD5
:1017C000C00708B9FFE745E0FFE70498408A4008F2
:1017D000C00728B1FFE704990220FFF771FF39E045
:1017E000EFF3108006900698029072B6029801906E
:1017F0000198039000200090FFE70098011D0091E0
:1018000038BBFFE70598006F049948600498059974
:1018100008670598B0F8A2100131A0F8A210059849
:10182000B0F9A200012801DBFFE70BE042F27E20C5
:10183000C0F6010042F27951C0F6010140F2573280
:10184000FFF712FEFFE703980790079880F31088D0
:10185000D3E7FFE708B080BD80B58AB0079007984E
:1018600008B1FFE70BE042F62F50C0F6010042F24C
:101870007951C0F601014FF45A72FFF7F5FD0020CF
:1018800006908DF81700EFF31081089108990391E5
:1018900072B603990291029904910190FFE70198B1
:1018A000011D019158BBFFE70798006F069006984D
:1018B000F0B1FFE706984068079908670798B0F805
:1018C000A2100139A0F8A2100798B0F9A2000028D0
:1018D00001D4FFE70BE042F25620C0F6010042F2CD
:1018E0007951C0F6010140F27132FFF7BDFDFFE70B
:1018F000FFE704980990099880F31088CFE70698CD
:1019000050B9FFE7142004210222FFF70BFE0690D6
:1019100001208DF81700FFE70698F8B1FFE7069859
:1019200000210161C1608160416001600698418AC7
:1019300041F0010141829DF8170000F00100069975
:101940004A8A22F0020242EA400048829DF81700CB
:10195000C00708B1FFE700E0FFE700E0FFE70698F7
:101960000AB080BD80B584B003900291039808B19D
:10197000FFE70BE042F62F50C0F6010042F279512A
:10198000C0F601014FF49252FFF76EFD029808B1C4
:10199000FFE70BE042F67D10C0F6010042F27951FC
:1019A000C0F6010141F24122FFF75EFD039808F005
:1019B0001DFB022806D3FFE7022871D0FFE70328AA
:1019C00079D079E003988069002864D0FFE7FFE7C9
:1019D0000398806990F820008008C00748B9FFE7A5
:1019E0000398806990F820004008C00708B9FFE715
:1019F0000AE00398816909688161FFE703988069BB
:101A00000028E5D1FFE7FFE70398806920B9FFE7E9
:101A1000039808F031FA50E00398806990F820109C
:101A200041F0040180F820100398806990F82000AC
:101A3000C008C00738B3FFE70398806901694069AF
:101A40000190009103988069B0F91E00012810DB15
:101A5000FFE703988069B0F91C00012809DBFFE764
:101A60000398806900F118016846024609F04EFEAD
:101A7000FFE7039869460122FFF7B8FD03988169E3
:101A80000968816106E00398816910310222FFF73D
:101A9000ADFDFFE703E0039808F0EEF9FFE70CE087
:101AA0000398816908310122FFF7A0FD039881693D
:101AB0000968816101E000E0FFE704B080BD00003B
:101AC00080B588B00590EFF31080069006980390DB
:101AD00072B6039802900298049000200190FFE7EC
:101AE0000198011D019150BBFFE7FFE70598D0F871
:101AF000C00058B9FFE70598D0F8B010C0F8C01082
:101B00000598D0F8B010C0F8BC100BE00598D0F8DC
:101B1000B010D0F8C00001600598D0F8B010C0F83F
:101B2000C010FFE70598D0F8B00000210160FFE782
:101B3000FFE704980790079880F31088D0E705988E
:101B400008F03AFE08B080BD80B584B003900291E1
:101B5000039808B1FFE70BE042F62F50C0F60100F2
:101B600042F27951C0F6010140F2A532FFF77CFC48
:101B7000029898B1FFE7FFE7029840680190039848
:101B80000299FFF703FE01980290FFE702980028F0
:101B9000F2D1FFE7039800214166FFE704B080BD62
:101BA00080B588B00591049041F60010C2F20000A3
:101BB0000390039808B1FFE70AE042F67140C0F6CF
:101BC000010042F64001C0F60101D322FFF74CFCB0
:101BD00008F0A2FC01910090039801684068084356
:101BE000A0B9FFE704980599039A51601060DDF8E9
:101BF00000C00199039A1368506813EB0C03484125
:101C00001360506000208DF81F001AE000980199C1
:101C1000039A13685268C01A71EB02000DDBFFE7EC
:101C200004980599009A019B80185941039A106005
:101C3000516001208DF81F0003E000208DF81F0087
:101C4000FFE79DF81F0008B080BD000080B584B09C
:101C500003900398006A08B1FFE70BE042F6974053
:101C6000C0F6010042F27951C0F601014FF40C7246
:101C7000FFF7FAFB0398D0F8B00008B1FFE70BE0DC
:101C800042F68450C0F6010042F27951C0F60101DB
:101C900040F23122FFF7E8FB0398D0F8B010B0F81B
:101CA0005420B0F858001044ADF808000398B0F87C
:101CB0005620B0F85A001044ADF80A000298C860E7
:101CC0000398007D00F07F009DF8071001F080016F
:101CD00008448DF807000398C08A8008C00798B1AF
:101CE000FFE79DF80700C0F3420004280CD1FFE78E
:101CF0000398D0F8B0104869B1F91020B1F912106A
:101D0000514309F063FBFFE70398C06C68B3FFE73A
:101D1000039800F0C7FF0090009808B1FFE70BE0C0
:101D200042F2D320C0F6010042F27951C0F601011F
:101D300040F24E22FFF798FB009A0399CB6C086D96
:101D4000D1F8B010984750B1FFE70398D0F8B01021
:101D500000F0ACFE00980399C1F8B00004E00398CD
:101D6000009900F0A3FEFFE7FFE70398FFF7A8FE46
:101D7000039890F8A41001F07F0180F8A410039854
:101D800090F8A51001F0BF0180F8A51004B080BD47
:101D900080B582B001908DF80310019808B1FFE77B
:101DA0000BE042F67140C0F6010042F27951C0F6F4
:101DB000010140F67722FFF757FB08F0ADFB019ACF
:101DC0005160106002B080BD80B582B001908DF886
:101DD0000310019808B1FFE70BE042F67140C0F62E
:101DE000010042F27951C0F601014FF42862FFF779
:101DF0003BFB08F091FB01990968401A02B080BDD5
:101E000082B00190019808B1FFE70BE042F62F5035
:101E1000C0F6010042F27951C0F601014FF4DD72C3
:101E2000FFF722FB019890F8A51041F0020180F81D
:101E3000A51002B07047000080B5B4B0289027917B
:101E4000FFE7289890F8A5000009C007002800F0D7
:101E50008980FFE7289890F8A400C00758BBFFE7E7
:101E6000289890F8A51001F0EF0180F8A5102898A7
:101E7000006E40B9FFE7289890F8A51041F0800166
:101E800080F8A51016E02898006E407C4008C00736
:101E900038B9FFE7289890F8A400C008C00740B1FF
:101EA000FFE7289890F8A51041F0800180F8A51070
:101EB000FFE7FFE70CE02898006E40B9FFE728989D
:101EC00090F8A51041F0800180F8A510FFE7FFE72A
:101ED0002898D0F8B00008B1FFE70BE042F6845034
:101EE000C0F6010042F27951C0F601014FF4EA62F6
:101EF000FFF7BAFA2898D0F8B00090BBFFE7EFF3ED
:101F000010802E902E98259072B6259824902498B3
:101F1000269000202390FFE72398011D2391B0B95C
:101F2000FFE7289890F8A110C08AB1EB103F07DDB9
:101F3000FFE7289800F0B6FE2899C1F8B000FFE747
:101F4000FFE726983390339880F31088E4E72898C9
:101F5000D0F8B00020B9FFE70020299000F0CBBCFA
:101F6000FFE741E028980021C0F8B010EFF310809F
:101F70002D902D98219072B6219820902098229033
:101F80001F91FFE71F98011D1F91B0B9FFE7289827
:101F900090F8A110C08AB1EB103F07DDFFE7289849
:101FA00000F080FE2899C1F8B000FFE7FFE7229813
:101FB0003290329880F31088E4E72898D0F8B00087
:101FC00020B9FFE70020299000F095BC289890F8F0
:101FD000A510D0F8B000826901F0400122F0004263
:101FE00042EA41618161FFE72898D0F8B00008B16A
:101FF000FFE70BE042F68450C0F6010042F279514F
:10200000C0F6010140F28672FFF72EFA2898D0F848
:10201000B00008301E90289890F8A5008009C007ED
:10202000002800F00081FFE7289890F8A50000093B
:10203000C007002800F0D780FFE72898C08AC008B2
:10204000C00740B9FFE7289890F8A4000009C0072E
:1020500000286CD0FFE7289890F8A51001F0EF0158
:1020600080F8A510289890F8A51001F0BF0180F81D
:10207000A5102898002101662898C08AC008C007CA
:10208000002853D0FFE72898406E002845D1FFE78D
:10209000FFE7289890F8A4008009C00740B9FFE73F
:1020A000289890F8A41041F0400180F8A41033E083
:1020B000EFF310802C902C981C9072B61C981B90FB
:1020C0001B981D9000201A90FFE71A98011D1A9185
:1020D00080B9FFE72898D0F8B01000F0E7FC289806
:1020E0000021C0F8B010FFE71D983190319880F3BF
:1020F0001088EAE7289890F8A51041F0400180F890
:10210000A510289890F8A51001F0EF0180F8A5100F
:102110004FF0FF302990EEE307E0289890F8A410E4
:1021200001F0BF0180F8A410FFE7FFE75AE028980C
:10213000416E01662898016E002918BF012190F8B0
:10214000A42002F0DF0242EA411180F8A41028988E
:10215000006E002844D1FFE7279808B1FFE70BE0A5
:1021600042F65C50C0F6010042F27951C0F601011E
:1021700040F2D172FFF778F9EFF310802B902B9893
:10218000189072B61898179017981990002016900A
:10219000FFE71698011D169180B9FFE72898D0F83F
:1021A000B01000F083FC28980021C0F8B010FFE7C1
:1021B00019983090309880F31088EAE7289890F8C2
:1021C000A51041F0400180F8A510289890F8A510BE
:1021D00001F0EF0180F8A5104FF0FF3029908AE35D
:1021E000FFE7FFE703E0279828990866FFE72898AC
:1021F000006E40B9FFE7289890F8A51041F0200143
:1022000080F8A51007E0289890F8A51001F0DF01EC
:1022100080F8A510FFE7289890F8A51041F08001FC
:1022200080F8A510FFE7FFE7289890F8A5000021A7
:10223000B1EBD01F00F00982FFE7289890F8A510B5
:1022400001F07F0180F8A5102898006E002800F0AA
:10225000C780FFE72898006E407C4008C00770B137
:10226000FFE72898006E417C01F0FD014174289839
:1022700090F8A41041F0080180F8A41007E0289815
:1022800090F8A41001F0F70180F8A410FFE7289857
:1022900090F8A5008009C00798B1FFE72898006E64
:1022A000407CC00768B9FFE7289890F8A400C008F0
:1022B000C00730B1FFE7289801684268C2658165B0
:1022C0008DE02898006E407CC00758B9FFE7289839
:1022D000016E083100F1580209F0F6FA002840F0CA
:1022E0007C80FFE7289890F8A400C008C00708B1D8
:1022F000FFE77CE0289800F027FC08B1FFE7A6E1A3
:10230000289890F8A5000009C00708B1FFE798E5F4
:102310002898C08AC008C00780B1FFE728980168E4
:102320004268C2658165289800210166289890F866
:10233000A51041F0200180F8A5104DE0EFF31080CA
:102340002A902A98149072B61498139013981590A6
:1023500000201290FFE71298011D129180B9FFE74B
:102360002898D0F8B01000F0A1FB28980021C0F800
:10237000B010FFE715982F902F9880F31088EAE7A8
:10238000289890F8A5000009C00708B9FFE70BE0FE
:1023900042F63F40C0F6010042F27951C0F6010119
:1023A00040F68902FFF760F8289890F8A5008009A8
:1023B000C00708B1FFE70BE042F61040C0F601008D
:1023C00042F27951C0F6010140F68A02FFF74CF85B
:1023D0004FF0FF3029908EE200E0FFE7FFE705E0D5
:1023E000289801684268C2658165FFE7FFE7289881
:1023F000C08A8009400740B3FFE72898C08AC0F32D
:102400008210012101FA00F0013811902898B0F9EA
:102410005800109011982899B1F8582022EA00002D
:10242000A1F8580010982899B1F85820801AB1F8EE
:102430005C201044A1F85C002898B0F85C10119A58
:1024400011449143A0F85C10FFE72898C08A400A25
:10245000400740B3FFE72898C08AC0F3422001211B
:1024600001FA00F001380F902898B0F95A000E9048
:102470000F982899B1F85A2022EA0000A1F85A00D2
:102480000E982899B1F85A20801AB1F85E201044AD
:10249000A1F85E002898B0F85E100F9A114491439D
:1024A000A0F85E10FFE72898C08A4008C00728B14E
:1024B000FFE72898C168C0F89810C5E0289890F800
:1024C000A600C00700285FD1FFE72898B0F95C108C
:1024D000B0F95E0048430D902898D0F89C000C900D
:1024E0000D980C99884207D9FFE72898B0F95C004D
:1024F0000C99884242D2FFE72898B0F85C10A0F807
:1025000098100C982899B1F95C10B0FBF1F00B9081
:102510000B982899B1F95E10884202DAFFE70B9810
:1025200003E02898B0F95E00FFE70B902898C08A76
:10253000400A4007E0B1FFE72898C08AC0F3422074
:10254000012101FA00F001380A900A980B9921EA5A
:1025500000000B900B9828B9FFE72898C168C0F8D5
:10256000981004E00B982899A1F89A00FFE704E07E
:102570000B982899A1F89A00FFE704E02898C16811
:10258000C0F89810FFE75EE02898B0F95C10B0F949
:102590005E00484309902898D0F89C00089009985C
:1025A0000899884207D9FFE72898B0F95E00089992
:1025B000884242D2FFE72898B0F85E10A0F89A103F
:1025C00008982899B1F95E10B0FBF1F007900798D0
:1025D0002899B1F95C10884202DAFFE7079803E016
:1025E0002898B0F95C00FFE707902898C08A800916
:1025F0004007E0B1FFE72898C08AC0F382100121AC
:1026000001FA00F0013806900698079921EA0000C7
:102610000790079828B9FFE72898C168C0F8981074
:1026200004E007982899A1F89800FFE704E00798CC
:102630002899A1F89800FFE704E02898C168C0F83D
:102640009810FFE7FFE7FFE700E0FFE700E0EBE5BA
:102650002898B0F85810B0F8540008444042ADF83B
:1026600010002898B0F85A10B0F8560008444042BC
:10267000ADF812002898406805902898B0F95410D9
:10268000B0F95C20B0F99800511A884204DAFFE7EB
:102690002898B0F9980006E02898B0F95410B0F9DD
:1026A0005C00401AFFE71E9908812898B0F956107F
:1026B000B0F95E20B0F99A00511A884204DAFFE7B7
:1026C0002898B0F99A0006E02898B0F95610B0F9A9
:1026D0005E00401AFFE71E9948811E98289901F173
:1026E000880204A9002309F005FFFFE72898C08AA3
:1026F000C008C00760B1FFE72898006E40B9FFE747
:10270000289890F8A51001F0EF0180F8A510A2E03C
:10271000289890F8A400C007002800F08380FFE705
:10272000289890F8A500C0F380108DF80F009DF850
:102730000F00C00710B3FFE72798F8B1FFE728980C
:1027400090F8A5000009C00740B9FFE7289890F865
:10275000A51041F0100180F8A5100EE0289890F81F
:10276000A51001F0EF0180F8A510289890F8A510A9
:1027700001F0BF0180F8A510FFE7FFE7289890F867
:10278000A5000009C00700284BD0FFE71E9800896C
:102790002899A1F88C002898006E08B1FFE70BE09B
:1027A00042F6DA30C0F6010042F27951C0F601017A
:1027B00040F68112FEF758FE289890F8A400000910
:1027C000C00768BBFFE79DF80F00C00738B1FFE7FF
:1027D000289890F8A400C008C007C0B9FFE728985F
:1027E000006E407CC00790B9FFE72898016E083161
:1027F000002209F069F848B1FFE72898016E90F8C7
:10280000A420C2F3C00200F061FBFFE700E0FFE795
:10281000289890F8A41001F0F70180F8A410FFE7C1
:10282000FFE717E0289890F8A5008009C00780B15D
:10283000FFE7279868B1FFE7289890F8A51041F0C6
:10284000100180F8A5101E9800892899A1F88C0025
:10285000FFE7FFE7FFE72898807DC00728B9FFE77B
:102860002898883009F020FEFFE7289888300290E9
:102870000298019000200090FFE7009800F11001FD
:10288000009110B9FFE7012001E00020FFE770B3DD
:10289000FFE70198017841F0100101702898007D50
:1028A00000F07F0001994A7802F0800210444870DD
:1028B00001980178012262F35F110170289890F865
:1028C000A50001998A78022303EAD00002F0FD02F4
:1028D00010448870289890F8A50000F00100019934
:1028E0008A7802F0FE0210448870FFE7C5E7289856
:1028F00088302990FFE7299834B080BD80B584B036
:102900000290029890F8A5000009C007A8B1FFE75F
:10291000029890F8A51001F0BF0180F8A510029868
:1029200090F8A400C00720B1FFE7029800F00CF96E
:10293000FFE701208DF80F007AE00298FFF786F993
:102940000298D0F8B000083001900298807DC0074E
:1029500020B9FFE7002009F0A7FDFFE7029890F8F3
:10296000A600C00780BBFFE7019800890299B1F873
:1029700054201044A1F854000298B0F95410B0F952
:102980005C0081421FDBFFE702980021A0F8541091
:10299000019840890299B1F856201044A1F85600D8
:1029A0000298B0F95610B0F95E0081420ADBFFE7E9
:1029B00002980021A0F85610029800F0C5F88DF892
:1029C0000F0035E0FFE72FE0019840890299B1F848
:1029D00056201044A1F856000298B0F95610B0F9EC
:1029E0005E0081421FDBFFE702980021A0F856102D
:1029F000019800890299B1F854201044A1F85400BC
:102A00000298B0F95410B0F95C0081420ADBFFE78C
:102A100002980021A0F85410029800F095F88DF863
:102A20000F0005E0FFE7FFE701208DF80F00FFE74B
:102A30009DF80F0004B080BD88B005910490049803
:102A400008B1FFE70BE042F62F50C0F6010042F25A
:102A50007951C0F6010140F2AF12FEF705FDEFF328
:102A6000108006900698029072B602980190019824
:102A7000039000200090FFE70098011D009190B99D
:102A8000FFE7049890F8A51001F0FD0180F8A5106B
:102A900004980599C0F8A810FFE7039807900798D5
:102AA00080F31088E8E708B07047000080B588B070
:102AB00005900491059808B1FFE70AE042F62F500F
:102AC000C0F6010042F27951C0F601018F22FEF7F3
:102AD000CBFC049808B9FFE734E0EFF310800690D0
:102AE0000698029072B60298019001980390002017
:102AF0000090FFE70098011D0091C0B9FFE7FFE7D4
:102B00000598D0F8B4000499086004980599C1F8B4
:102B1000B400FFE7059890F8A110013180F8A110EA
:102B2000FFE703980790079880F31088E2E705987D
:102B3000D0F8AC0030B1FFE70598D0F8AC0008F051
:102B4000DDFDFFE708B080BD80B582B00090009841
:102B500090F8A4004009C00740B3FFE70098006E5A
:102B60004068A0B9FFE7009890F8A41001F0DF01D9
:102B700080F8A410009800210166009890F8A52024
:102B800042F0400280F8A5208DF8071042E000983E
:102B9000016E49680166009890F8A51041F0800127
:102BA00080F8A51001208DF8070033E00098006E32
:102BB00030B9FFE7009807F007F98DF8070029E022
:102BC0000098006E407C4008C00740B1FFE70098C5
:102BD00090F8A51041F0800180F8A51016E000984B
:102BE000016E096801660098006E30B9FFE7009831
:102BF00007F0EAF88DF807000CE0009890F8A510AF
:102C000041F0800180F8A510FFE7FFE701208DF873
:102C10000700FFE79DF8070002B080BD80B586B0D1
:102C2000059040F2BC00C2F2000030300490012058
:102C30008DF80F00002002900598049902AA08F070
:102C40003FF88DF80700FFE79DF80700C00708B1BF
:102C5000FFE721E0029808B9FFE71DE0029800783D
:102C60000121B1EB501F01D0FFE715E002988078F9
:102C7000C00768B9FFE79DF80F00C00730B1FFE754
:102C8000029880784008C00708B9FFE704E0FFE732
:102C900001208DF80700FFE79DF8070000F0010014
:102CA00006B080BD88B00590059808B1FFE70AE03E
:102CB00042F62F50C0F6010042F27951C0F60101F0
:102CC0006922FEF7D1FB00200490EFF310810691FA
:102CD0000699029172B602990191019903910090AF
:102CE000FFE70098011D009138BBFFE7059890F8B9
:102CF000A100D8B1FFE7059890F8A110013980F83C
:102D0000A110FFE70598D0F8B40004900598D0F81A
:102D1000B40048B1FFE7049800680599C1F8B40011
:102D2000049800210160FFE7FFE7FFE7FFE7039852
:102D30000790079880F31088D3E7049820B1FFE745
:102D400005980499486000E0FFE7049808B07047D0
:102D500080B58AB007900691079808B1FFE70BE0AD
:102D600042F62F50C0F6010042F27951C0F601013F
:102D700040F20122FEF778FBEFF3108008900898EC
:102D8000049072B604980390039805900020029076
:102D9000FFE70298011D029160BBFFE7069848B962
:102DA000FFE70798D0F8B800069007980021C0F810
:102DB000B81018E006980799D1F8B810884205D1E4
:102DC000FFE707980021C0F8B8100BE042F6052095
:102DD000C0F6010042F27951C0F601014FF40472CD
:102DE000FEF742FBFFE7FFE705980990099880F39B
:102DF0001088CEE7069860B9FFE742F60520C0F6D6
:102E0000010042F27951C0F6010140F21522FEF7AD
:102E10002BFB06980021ADF80410ADF806100199BF
:102E2000C16007980699FFF741FE079807F0C4FCB8
:102E30000AB080BD84B003900291039808B1FFE707
:102E40000BE042F64060C0F6010042F27951C0F654
:102E5000010140F2F232FEF707FB029808B1FFE7EA
:102E60000BE042F66730C0F6010042F27951C0F63D
:102E7000010140F2F332FEF7F7FA039801900020C7
:102E80008DF80300FFE703980068B0B1FFE70398EF
:102E90000068029988420BD1FFE7029840680399C5
:102EA000086002980021416001208DF8030005E0D0
:102EB0000398006804300390E5E7FFE79DF80300FE
:102EC000C00708B9FFE7FFE704B0704780B59CB0C2
:102ED0001B901A918DF867201B9808B1FFE70BE053
:102EE00042F62F50C0F6010042F27951C0F60101BE
:102EF00040F28542FEF7B8FA1A9808B1FFE70BE0F6
:102F000042F66730C0F6010042F27951C0F6010185
:102F100040F28642FEF7A8FAFFE71A9818909DF84B
:102F20006700C007B8B1FFE71B98FEF795FC189043
:102F3000189840B9FFE71B9890F8A41041F01001D1
:102F400080F8A41006E018981A998A68C968C160C8
:102F50008260FFE7FFE71B9890F8A4000009C00714
:102F600028B1FFE71B981899FEF710FC60E21B9848
:102F70006C301899FEF7AEFBFFE7FFE7FFE7002094
:102F80001790FFE7FFE71B98C06E1790179808B9D6
:102F9000FFE747E21B98406E16901B986C3017991C
:102FA000FFF748FF1798B0F90C10B0F90E0048432E
:102FB0001590FFE71698002800F02D82FFE716987D
:102FC00040681490179808301699083108F01EFBD5
:102FD00011901198012805D1FFE71B981799FEF76A
:102FE000D5FBCFE71198013050B9FFE71B9864304B
:102FF0001699FFF71FFF1B981699FEF7C7FB07E20C
:10300000169808301799083112AA08F07FFB169815
:10301000B0F90C10B0F90E0048431090BDF94C0007
:10302000BDF94E1048430F900F981599109A11440E
:103030006431884228D8FFE71B9864301699FFF75F
:10304000F9FE1B981699FEF7A1FB1B981799FEF73E
:103050009DFB1B98FEF700FC0E900E9840B9FFE711
:103060001B9890F8A41041F0100180F8A410DFE143
:103070000E981299139AC26081601B986C300E9959
:10308000FEF728FBFFE779E7FFE7002009900890AB
:1030900016980830179908310CAA08F015FC08B9E1
:1030A000FFE7B2E117980089ADF81E001798018973
:1030B000808908440138ADF81C0017984089ADF8A4
:1030C0001A0017984189C08908440138ADF81800E2
:1030D00016980089ADF81600169801898089084471
:1030E0000138ADF8140016984089ADF81200169812
:1030F0004189C08908440138ADF8100000208DF8DE
:103100000F008DF80E008DF80D008DF80C00BDF944
:103110001E00BDF9161088420CDAFFE7BDF91C004D
:10312000BDF91410884204DBFFE701208DF80E0082
:10313000FFE723E0BDF91E00BDF9161088420CDD43
:10314000FFE7BDF91C00BDF91410884204DCFFE75D
:1031500001208DF80F00FFE70FE0BDF91C00BDF95D
:103160001410884204DCFFE701208DF80F0003E013
:1031700001208DF80E00FFE7FFE7FFE7BDF91A0019
:10318000BDF9121088420CDAFFE7BDF91800BDF94D
:103190001010884204DBFFE701208DF80C00FFE7E8
:1031A00023E0BDF91A00BDF9121088420CDDFFE7DB
:1031B000BDF91800BDF91010884204DCFFE70120BA
:1031C0008DF80D00FFE70FE0BDF91800BDF91010F4
:1031D000884204DCFFE701208DF80D0003E00120A8
:1031E0008DF80C00FFE7FFE7FFE79DF80F00C00731
:1031F00028B3FFE79DF80C00C00740B9FFE7179818
:1032000008300CA90AAA03F097FB099016E0BDF953
:103210001E00BDF91610884207D0FFE7BDF91C005B
:10322000BDF91410884208D1FFE7169808300CA9A0
:103230000AAA03F027FB0890FFE7FFE780E09DF86C
:103240000E00C00728B3FFE79DF80D00C00740B986
:10325000FFE7169808300CA90AAA03F06DFB089046
:1032600016E0BDF91E00BDF91610884207D0FFE731
:10327000BDF91C00BDF91410884208D1FFE717986A
:1032800008300CA90AAA03F0FDFA0990FFE7FFE74E
:1032900055E09DF80D00C00728B3FFE79DF80E002C
:1032A000C00740B9FFE7179808300CA90AAA03F035
:1032B000E9FA099016E0BDF91A00BDF9121088422A
:1032C00007D0FFE7BDF91800BDF91010884208D1FA
:1032D000FFE7169808300CA90AAA03F02DFB089006
:1032E000FFE7FFE72AE09DF80C00C00728B3FFE7DF
:1032F0009DF80F00C00740B9FFE7169808300CA9E9
:103300000AAA03F0BFFA089016E0BDF91A00BDF949
:103310001210884207D0FFE7BDF91800BDF9101060
:10332000884208D1FFE7179808300CA90AAA03F0D1
:1033300003FB0990FFE7FFE7FFE7FFE7FFE7FFE792
:10334000099850B3FFE71B981799FEF71FFA1B98CF
:10335000FEF782FA0290029898B9FFE71798807CEE
:10336000C00708B9FFE70BE042F60330C0F60100E2
:1033700042F27951C0F6010140F2BB62FEF774F8E7
:1033800043E0029809990A684968C16082601B9805
:103390006C300299FEF79EF975E60898A0B3FFE736
:1033A0001B9864301699FFF745FD1B981699FEF798
:1033B000EDF91B98FEF750FA01900198C0B9FFE7AC
:1033C0001698807CC00708B9FFE70BE042F62B3067
:1033D000C0F6010042F27951C0F6010140F2E36209
:1033E000FEF742F816991B986430FEF773F90CE06B
:1033F000019808990A684968C16082601B986C301E
:103400000199FEF767F903E0FFE7FFE7FFE7FFE752
:1034100014981690CEE51B9864301799FEF75AF968
:10342000FFE7B0E5179808B9FFE701E0FFE7A6E579
:103430001CB080BD86B00590ADF8121003928DF8D7
:103440000B3000200190FFE701980399B1F90210B9
:1034500088421EDAFFE700200090FFE700980399FA
:10346000B1F9001088420ADAFFE79DF80B000599D0
:10347000009A8854FFE7009801300090EEE7BDF90C
:103480001200059908440590FFE70198013001906A
:10349000DAE706B0704700008AB0DDF82CC0DDF82E
:1034A00028C009900891ADF81E200693ADF816C00B
:1034B000FF208DF81500089800F007000890BDF86F
:1034C0001E00073020F00700ADF81E00BDF91E00F9
:1034D000C008ADF81E0000200490FFE704980B9987
:1034E000B1F90210884247DAFFE70998039006987D
:1034F00002900898012101FA00F08DF807000020E1
:103500000090FFE700980B99B1F90010884224DA87
:10351000FFE7039800789DF80710084205D0FFE701
:103520009DF8150002990870FFE70298013002909B
:103530009DF8070040008DF807009DF8070038B996
:10354000FFE701208DF80700039801300390FFE7A3
:10355000FFE7009801300090D4E7BDF91E000999FB
:1035600008440990BDF91600069908440690FFE743
:10357000049801300490B1E70AB0704786B0059016
:10358000ADF812100392ADF80A3000200190FFE769
:1035900001980399B1F90210884220DAFFE7002070
:1035A0000090FFE700980399B1F9001088420BDA08
:1035B000FFE7BDF80A000599009A21F81200FFE71D
:1035C000009801300090EDE7BDF91200059901EB7C
:1035D00040000590FFE7019801300190D8E706B060
:1035E00070470000B0B58AB0DDF848C0DDF844E0AF
:1035F000109C0F9D0E9D09900891ADF81E2006931A
:10360000ADF816508DF81540ADF812E0ADF810C0C9
:103610009DF8150000F0700090B1FFE7102820D051
:10362000FFE7202833D0FFE7302831D0FFE74028DC
:103630003FD0FFE760283CD0FFE7702846D056E037
:1036400009980899BDF91E20069BBDF916C00F9C6C
:10365000BDF8125002950194CDF800C000F0C0F9F9
:1036600045E009980899BDF91E20069BBDF916C0D2
:10367000DDF83CE0BDF81250BDF81040039402950F
:10368000CDF804E0CDF800C000F0B2F82FE02EE055
:1036900009980899BDF91E20069BBDF916C00F9C1C
:1036A000BDF8105002950194CDF800C000F020F94B
:1036B0001DE009980899BDF91E20069BBDF916501A
:1036C0000F9C0194009500F001FA10E00998089908
:1036D000BDF91E20069BBDF916C00F9CBDF8105009
:1036E00002950194CDF800C000F004F8FFE70AB09D
:1036F000B0BD000080B58AB0DDF838C0DDF834E038
:10370000DDF830E009900891ADF81E200693ADF881
:1037100016E0ADF814C0089800F007000890BDF856
:103720001E00073020F00700ADF81E00BDF91E0096
:10373000C008ADF81E0000200490FFE704980D9922
:10374000B1F90210884250DAFFE709980390069811
:1037500002900898012101FA00F08DF8070000207E
:103760000090FFE700980D99B1F90010884229DA1E
:10377000FFE7039800789DF80710084205D0FFE79F
:1037800002980188C943018004E0BDF81400029941
:103790000880FFE70298023002909DF80700400081
:1037A0008DF807009DF8070038B9FFE701208DF874
:1037B0000700039801300390FFE7FFE7009801300E
:1037C0000090CFE701208DF80700BDF91E00099990
:1037D00008440990BDF91600069901EB40000690D7
:1037E000FFE7049801300490A8E70AB080BD00000C
:1037F00010B58BB0DDF840C0DDF83CE00E9C0D9CB0
:103800000A900991ADF822200793ADF81A40ADF85F
:1038100018E0ADF816C0099800F007000990BDF84F
:103820002200073020F00700ADF82200BDF9220089
:10383000C008ADF8220000200490FFE704980E991C
:10384000B1F90210884251DAFFE70A98039007980D
:1038500002900998012101FA00F08DF8070000207C
:103860000090FFE700980E99B1F9001088422ADA1B
:10387000FFE7039800789DF80710084207D0FFE79C
:10388000BDF8180002998A1C0292088006E0BDF873
:10389000160002998A1C02920880FFE79DF8070033
:1038A00040008DF807009DF8070038B9FFE70120B8
:1038B0008DF80700039801300390FFE7FFE70098B9
:1038C00001300090CEE701208DF80700BDF92200FD
:1038D0000A9908440A90BDF91A00079901EB4000C3
:1038E0000790FFE7049801300490A7E70BB010BDE4
:1038F00080B58AB0DDF838C0DDF834E0DDF830E0BE
:1039000009900891ADF81E200693ADF816E0ADF8C9
:1039100014C0089800F007000890BDF81E0007309A
:1039200020F00700ADF81E00BDF91E00C008ADF87C
:103930001E0000200490FFE704980D99B1F90210D1
:1039400088424BDAFFE7099803900698029008989E
:10395000012101FA00F08DF8070000200090FFE738
:1039600000980D99B1F90010884224DAFFE7039816
:1039700000789DF80710084205D1FFE7BDF8140054
:1039800002990880FFE70298023002909DF8070034
:1039900040008DF807009DF8070038B9FFE70120C7
:1039A0008DF80700039801300390FFE7FFE70098C8
:1039B00001300090D4E701208DF80700BDF91E000A
:1039C000099908440990BDF91600069901EB4000D9
:1039D0000690FFE7049801300490ADE70AB080BD7F
:1039E00080B58AB0DDF838C0DDF834E0DDF830E0CD
:1039F00009900891ADF81E200693ADF816E0ADF8D9
:103A000014C0089800F007000890BDF81E000730A9
:103A100020F00700ADF81E00BDF91E00C008ADF88B
:103A20001E0000200490FFE704980D99B1F90210E0
:103A3000884248DAFFE709980390069802900898B0
:103A4000012101FA00F08DF8070000200090FFE747
:103A500000980D99B1F90010884224DAFFE7039825
:103A600000789DF80710084205D0FFE7BDF8140064
:103A700002990880FFE70298023002909DF8070043
:103A800040008DF807009DF8070038B9FFE70120D6
:103A90008DF80700039801300390FFE7FFE70098D7
:103AA00001300090D4E7BDF91E000999084409903F
:103AB000BDF91600069901EB40000690FFE7049857
:103AC00001300490B0E70AB080BD00008AB0DDF894
:103AD0002CC0DDF828C009900891ADF81E2006938F
:103AE000ADF816C0089800F007000890BDF81E0059
:103AF000073020F00700ADF81E00BDF91E00C00819
:103B0000ADF81E0000200490FFE704980B99B1F96E
:103B1000021088424BDAFFE709980390069802905A
:103B20000898012101FA00F08DF8070000200090AC
:103B3000FFE700980B99B1F90010884224DAFFE7FB
:103B4000039800789DF80710084205D0FFE7029817
:103B50000188C9430180FFE70298023002909DF876
:103B6000070040008DF807009DF8070038B9FFE70F
:103B700001208DF80700039801300390FFE7FFE76D
:103B8000009801300090D4E701208DF80700BDF9BE
:103B90001E00099908440990BDF91600069901EB29
:103BA00040000690FFE7049801300490ADE70AB0AA
:103BB0007047000086B00590ADF812100392029392
:103BC00000200190FFE701980399B1F902108842A3
:103BD0001FDAFFE700200090FFE700980399B1F992
:103BE000001088420ADAFFE702980599009A41F826
:103BF0002200FFE7009801300090EEE7BDF91200C7
:103C0000059901EB80000590FFE7019801300190D4
:103C1000D9E706B07047000080B596B0DDF86CC0FB
:103C2000DDF868C0DDF864E0DDF860E01590ADF81F
:103C300052101392ADF84A30ADF848C0189800F011
:103C400007001890BDF84A00073020F00700ADF8D3
:103C50004A00BDF94A00C008ADF84A001998B0F909
:103C6000020011901998B0F90000109000200F90F8
:103C7000FFE70F981199884280F29B80FFE7139825
:103C80000E9018980D900D98012101FA00F08DF812
:103C9000330015980B9000200A90FFE70A981099BE
:103CA000884276DAFFE70E9800789DF833100840D6
:103CB0000D99C840ADF82600BDF826001B99484371
:103CC000C0F58070ADF82400BDF82400811EB1FA63
:103CD00081F14909A0EB4100ADF82400FFE7BDF8F0
:103CE0002400C0F58070ADF822000B98811C0B9168
:103CF0000390BDF848000DF11A0103F0FBF803989A
:103D000000880DF1120103F0F5F800200290FFE7A2
:103D1000029802281CDCFFE702980DF11A0131F825
:103D20001010BDF822200DF1120C3CF81000BDF867
:103D30002430584301FB0200ADF806009DF807004F
:103D400002992CF81100FFE7029801300290DFE79A
:103D50000DF1120002F006FF03990880FFE79DF8BD
:103D6000330040008DF833000D9801300D909DF820
:103D7000330048B9FFE701208DF8330000200D9093
:103D80000E9801300E90FFE7FFE70A9801300A9085
:103D900084E7BDF94A00139908441390BDF9520015
:103DA000159901EB40001590FFE70F9801300F9037
:103DB0005FE716B080BD000080B590B0DDF84CC064
:103DC000DDF848E00F90ADF83A100D92ADF83230C2
:103DD000ADF830C01298B0F902000B901298B0F90B
:103DE00000000A9000200990FFE709980B9988428B
:103DF0006FDAFFE700200890FFE708980A998842E9
:103E000052DAFFE70D98011D0D910078C0F5807022
:103E1000ADF81E00BDF81E00411E012808BF08466F
:103E2000ADF81E00FFE7BDF81E00C0F58070ADF8CC
:103E30001C000F98811C0F910290BDF8300005A95D
:103E400003F058F80298008803A903F053F8002003
:103E50000190FFE7019802281BDCFFE7019805A904
:103E600031F81010BDF81C200DF10C0C3CF81000BE
:103E7000BDF81E30584301FB0200ADF802009DF86A
:103E8000030001992CF81100FFE70198013001901F
:103E9000E0E703A802F066FE02990880FFE7FFE76B
:103EA000089801300890A8E7BDF932000A99401A35
:103EB0000D9901EB80000D90BDF93A000A99401A66
:103EC0000F9901EB40000F90FFE70998013009902E
:103ED0008BE710B080BD000080B590B0DDF850C019
:103EE000DDF84CC0DDF848E00F90ADF83A100D92C7
:103EF000ADF83230ADF830C01298B0F902000B9036
:103F00001298B0F900000A9000200990FFE7099884
:103F10000B99884275DAFFE700200890FFE70898C0
:103F20000A99884258DAFFE70D98011D0D91007833
:103F3000149948434FF48071A1EB1020ADF81E0096
:103F4000BDF81E00811EB1FA81F14909A0EB4100C4
:103F5000ADF81E00FFE7BDF81E00C0F58070ADF89B
:103F60001C000F98811C0F910290BDF8300005A92C
:103F700002F0C0FF0298008803A902F0BBFF0020F6
:103F80000190FFE7019802281BDCFFE7019805A9D3
:103F900031F81010BDF81C200DF10C0C3CF810008D
:103FA000BDF81E30584301FB0200ADF802009DF839
:103FB000030001992CF81100FFE7019801300190EE
:103FC000E0E703A802F0CEFD02990880FFE7FFE7D3
:103FD000089801300890A2E7BDF932000A99401A0A
:103FE0000D9901EB80000D90BDF93A000A99401A35
:103FF0000F9901EB40000F90FFE7099801300990FD
:1040000085E710B080BD000080B5ACB02190209154
:104010001F922198B0F942001E902198B0F94000FB
:104020001D902198B0F928001C902198006A1B90DF
:104030002198406C1A902198B0F94C001990209862
:10404000808AADF86200209890ED000AB1EE400A37
:104050008DED170A2198C06816901F98411CFF2803
:1040600008BF08461F901D98022807DBFFE71D9830
:1040700001386FF0004191FBF0F002E06FF000407A
:10408000FFE71590209880690C90219840309DEDB5
:10409000170A2099D1ED010A91ED021A01F10C03E2
:1040A0000DA900910CA916AA04F0A4F90E98129972
:1040B000081A159950FB01F00B9010981499081AE2
:1040C000159950FB01F00A9000200990FFE709982C
:1040D0001E99884280F2B380FFE709980D990E9AE5
:1040E0004843299028922998289981FA80F00890CD
:1040F00009980F99109A4843279026922798269955
:1041000081FA80F0079000200690FFE706981D993D
:10411000884280F28880FFE707980A99069A5143FF
:104120002B912B9981FA81F125902491259824993E
:1041300081FA80F0049008980B99069A51432A91CD
:104140002A9981FA81F1239022912398229981FA68
:1041500080F005900498012805DBFFE7049800F241
:104160004E20049004E00498A0F24E200490FFE753
:104170000598012805DBFFE7059800F24E20059021
:1041800004E00598A0F24E200590FFE704980AF09D
:1041900059FC2199B1F85010401AADF80C0005985F
:1041A0000AF050FC2199B1F85210401AADF80E00F7
:1041B000BDF90C00002817D4FFE7BDF90E00002858
:1041C00012D4FFE7BDF90C002199B1F9541001395F
:1041D000884209DAFFE7BDF90E002199B1F95610BE
:1041E0000139884204DBFFE71B9802301B9016E080
:1041F000219800F150011A9ABDF96430DDF86CC0C5
:10420000BDF862E01F980290CDF804E0CDF800C040
:1042100004A800F0FFFB1B9802301B90FFE70698F4
:104220000130069072E71C981D99401A1B9901EB0A
:1042300040001B90FFE709980130099047E72CB038
:1042400080BD000080B590B0DDF84CC0DDF848E0DE
:104250000F90ADF83A100D92ADF83230ADF830C095
:104260001298B0F902000B901298B0F900000A9071
:1042700000200990FFE709980B9988426EDAFFE762
:1042800000200890FFE708980A99884252DAFFE771
:104290000D98411C0D910078C0F58070ADF81E009E
:1042A000BDF81E00411E012808BF0846ADF81E00DB
:1042B000FFE7BDF81E00C0F58070ADF81C000F9838
:1042C000811C0F910290BDF8300005A902F012FE8A
:1042D0000298008803A902F00DFE00200190FFE77C
:1042E000019802281BDCFFE7019805A931F810109E
:1042F000BDF81C200DF10C0C3CF81000BDF81E3070
:10430000584301FB0200ADF802009DF8030001993B
:104310002CF81100FFE7019801300190E0E703A8B5
:1043200002F020FC02990880FFE7FFE708980130BF
:104330000890A8E7BDF932000A99401A0D9908447F
:104340000D90BDF93A000A99401A0F9901EB40000F
:104350000F90FFE70998013009908CE710B080BDFD
:1043600080B590B0DDF850C0DDF84CC0DDF848E015
:104370000F90ADF83A100D92ADF83230ADF830C074
:104380001298B0F902000B901298B0F900000A9050
:1043900000200990FFE709980B99884274DAFFE73B
:1043A00000200890FFE708980A99884258DAFFE74A
:1043B0000D98411C0D910078149948434FF4807179
:1043C000A1EB1020ADF81E00BDF81E00811EB1FA51
:1043D00081F14909A0EB4100ADF81E00FFE7BDF8EF
:1043E0001E00C0F58070ADF81C000F98811C0F9165
:1043F0000290BDF8300005A902F07CFD029800880B
:1044000003A902F077FD00200190FFE70198022840
:104410001BDCFFE7019805A931F81010BDF81C203E
:104420000DF10C0C3CF81000BDF81E30584301FB98
:104430000200ADF802009DF8030001992CF811006C
:10444000FFE7019801300190E0E703A802F08AFB42
:1044500002990880FFE7FFE7089801300890A2E77B
:10446000BDF932000A99401A0D9908440D90BDF922
:104470003A000A99401A0F9901EB40000F90FFE7AC
:1044800009980130099086E710B080BD80B5ACB0C6
:10449000219020911F922198B0F942001E902198FE
:1044A000B0F940001D902198B0F928001C90219887
:1044B000006A1B902198406C1A902198B0F94C002A
:1044C00019902098808AADF86200209890ED000A3B
:1044D000B1EE400A8DED170A2198C06816901F981A
:1044E000411CFF2808BF08461F901D98022807DBC3
:1044F000FFE71D9801386FF0004191FBF0F002E0FA
:104500006FF00040FFE71590209880690C9021988B
:1045100040309DED170A2099D1ED010A91ED021A64
:1045200001F10C030DA900910CA916AA03F062FF7A
:104530000E981299081A159950FB01F00B901098DB
:104540001499081A159950FB01F00A90002009905F
:10455000FFE709981E99884280F2B380FFE7099827
:104560000D990E9A4843299028922998289981FA02
:1045700080F0089009980F99109A48432790269246
:104580002798269981FA80F0079000200690FFE78F
:1045900006981D99884280F28880FFE707980A995B
:1045A000069A51432B912B9981FA81F12590249100
:1045B0002598249981FA80F0049008980B99069A1E
:1045C00051432A912A9981FA81F1239022912398CB
:1045D000229981FA80F005900498012805DBFFE715
:1045E000049800F24E20049004E00498A0F24E20BB
:1045F0000490FFE70598012805DBFFE7059800F226
:104600004E20059004E00598A0F24E200590FFE7AB
:1046100004980AF017FA2199B1F85010401AADF831
:104620000C0005980AF00EFA2199B1F85210401AC0
:10463000ADF80E00BDF90C00002817D4FFE7BDF956
:104640000E00002812D4FFE7BDF90C002199B1F942
:1046500054100139884209DAFFE7BDF90E002199AB
:10466000B1F956100139884204DBFFE71B9802308C
:104670001B9016E0219800F150011A9ABDF96430A0
:10468000DDF86CC0BDF862E01F980290CDF804E040
:10469000CDF800C004A800F099F81B9802301B90D8
:1046A000FFE706980130069072E71C981D99401AA2
:1046B0001B9901EB40001B90FFE70998013009901E
:1046C00047E72CB080BD000080B592B0DDF850C047
:1046D0001190ADF842100F92ADF83A300F98B0F942
:1046E00000000D900F98B0F902000C901498411C36
:1046F000FF2808BF084614901498C0F58070ADF8E4
:104700002E0000200A90FFE70A980C9988425BDA95
:10471000FFE700200990FFE709980D99884246DAE3
:10472000FFE7FFE7BDF82E00C0F58070ADF822006E
:104730001198811C11910390BDF83A000DF11A01F6
:1047400002F0D8FB039800880DF1120102F0D2FBB1
:1047500000200290FFE7029802281CDCFFE7029885
:104760000DF11A0131F81010BDF822200DF1120CD4
:104770003CF81000BDF82E30584301FB0200ADF8A4
:1047800006009DF8070002992CF81100FFE7029837
:1047900001300290DFE70DF1120002F0E3F9039916
:1047A0000880FFE7FFE7099801300990B4E7BDF9F9
:1047B00042000D99401A119901EB40001190FFE75A
:1047C0000A9801300A909FE712B080BD80B594B07E
:1047D000DDF860C0DDF85CC0DDF858E013901291A0
:1047E0001192ADF84230ADF840C0139800680AF05D
:1047F00029F9ADF83C00139840680AF023F9ADF8A8
:104800003E0013984078ADF83A0013984079ADF81F
:1048100038001198BDF93C10BDF93E20BDF9423079
:1048200012FB031108440D900D98411C0D91007866
:104830008DF833000D9800788DF83200BDF94200F4
:104840000D9908440D900D98411E0D9100788DF83A
:1048500031000D9800788DF83000BDF83A00BDF8B1
:104860003810C1F580714843000AADF82E00BDF83C
:104870003A00C0F58070BDF838104843000AADF822
:104880002C00BDF83A00BDF838104843000AADF8D6
:104890002A00BDF82E00BDF82C100844BDF82A10DF
:1048A0000844C0F58070ADF82800002009909DF8FC
:1048B0003300B0F1FF0118BF0121A0F1FF02B2FAED
:1048C00082F25209BDF828305A434843584300EB5E
:1048D0000220089008980999084409909DF8320030
:1048E000B0F1FF0118BF0121A0F1FF02B2FA82F27C
:1048F0005209BDF82E305A434843584300EB02207A
:10490000089008980999084409909DF83000B0F182
:10491000FF0118BF0121A0F1FF02B2FA82F2520991
:10492000BDF82C305A434843584300EB022008900E
:1049300008980999084409909DF83100B0F1FF01E9
:1049400018BF0121A0F1FF02B2FA82F25209BDF8AC
:104950002A305A434843584300EB022008900898F5
:104960000999084409900998002850D0FFE7099850
:10497000010A0022FE294FF0000188BF0121B0F595
:104980007F4F38BF0122189B5843000C504301FB56
:104990000300ADF81E00FFE7BDF81E00C0F58070F3
:1049A000ADF81C0016980290BDF8400005A902F071
:1049B000D7FA0298008803A902F0D2FA00200190E9
:1049C000FFE7019802281BDCFFE7019805A931F8F1
:1049D0001010BDF81E200DF10C0C3CF81000BDF8B5
:1049E0001C30584301FB0200ADF802009DF80300A3
:1049F00001992CF81100FFE7019801300190E0E7E0
:104A000003A802F0E7F802990880FFE7FFE714B077
:104A100080BD000080B594B0DDF860C0DDF85CC0FA
:104A2000DDF858E0139012911192ADF84230ADF8D4
:104A300040C0139800680AF005F8ADF83C001398E0
:104A4000406809F0FFFFADF83E0013984078ADF8DC
:104A50003A0013984079ADF838001198BDF93C1030
:104A6000BDF93E20BDF9423012FB031100EB81007D
:104A70000D900D98011D0D9100788DF833000D9863
:104A800000788DF83200BDF942000D9901EB8000ED
:104A90000D900D98011F0D9100788DF831000D9843
:104AA00000788DF83000BDF83A00BDF83810C1F537
:104AB00080714843000AADF82E00BDF83A00C0F5F9
:104AC0008070BDF838104843000AADF82C00BDF8DE
:104AD0003A00BDF838104843000AADF82A00BDF886
:104AE0002E00BDF82C100844BDF82A100844C0F56B
:104AF0008070ADF82800002009909DF83300B0F1D7
:104B0000FF0118BF0121A0F1FF02B2FA82F252099F
:104B1000BDF828305A434843584300EB0220089020
:104B200008980999084409909DF83200B0F1FF01F6
:104B300018BF0121A0F1FF02B2FA82F25209BDF8BA
:104B40002E305A434843584300EB022008900898FF
:104B50000999084409909DF83000B0F1FF0118BF91
:104B60000121A0F1FF02B2FA82F25209BDF82C3005
:104B70005A434843584300EB02200890089809998B
:104B8000084409909DF83100B0F1FF0118BF0121E0
:104B9000A0F1FF02B2FA82F25209BDF82A305A435C
:104BA0004843584300EB02200890089809990844AC
:104BB00009900998002850D0FFE70998010A0022BF
:104BC000FE294FF0000188BF0121B0F57F4F38BFAB
:104BD0000122189B5843000C504301FB0300ADF821
:104BE0001E00FFE7BDF81E00C0F58070ADF81C0088
:104BF00016980290BDF8400005A902F0B1F902989C
:104C0000008803A902F0ACF900200190FFE70198A9
:104C100002281BDCFFE7019805A931F81010BDF848
:104C20001E200DF10C0C3CF81000BDF81C30584350
:104C300001FB0200ADF802009DF8030001992CF879
:104C40001100FFE7019801300190E0E703A801F0AF
:104C5000C1FF02990880FFE7FFE714B080BD0000A4
:104C600080B540F2A810C2F200009C21FBF765FE5F
:104C700080BD000010B5B2B0319030912F922E93CC
:104C8000FC208DF8B70000200090319901918DF83B
:104C900008009DF8090000F0FE008DF8090030982A
:104CA000D0F800C0D0F804E08368C16802694469A4
:104CB0000894079206910593CDF810E0CDF80CC04A
:104CC0008169C0690A9009912F98D0F800C0D0F886
:104CD00004E08368C4680169426910920F910E94E0
:104CE0000D93CDF830E0CDF82CC08169C0691290E9
:104CF00011912E980068139068462C903198406866
:104D00008068006870B1FFE731984068806848B1FA
:104D1000FFE731984068806801682C9888478DF8D3
:104D2000B70003E0FC208DF8B700FFE7319802F0F0
:104D300007FB9DF9B70032B010BD000010B5B2B04E
:104D4000DDF8D0C0319030912F922E93FC208DF859
:104D5000B70000200090319901918DF808009DF86E
:104D6000090000F0FE008DF809003098D0F800C06E
:104D7000D0F804E08368C168026944690894079226
:104D800006910593CDF810E0CDF80CC08169C0699B
:104D90000A9009912E98D0F800C0D0F804E08368FA
:104DA000C4680169426910920F910E940D93CDF879
:104DB00030E0CDF82CC08169C0691290119134980F
:104DC000006813902F98D0F800C0D0F804E08368F2
:104DD000C468016942691992189117941693CDF825
:104DE00054E0CDF850C08169C0691B901A916846A3
:104DF0002C90319840688068006870B1FFE7319866
:104E00004068806848B1FFE7319840688068016871
:104E10002C9888478DF8B70003E0FC208DF8B70088
:104E2000FFE7319802F08CFA9DF9B70032B010BD5F
:104E3000B0B5B2B0DDF8E0C0DDF8DCC0DDF8D8C058
:104E4000319030912F922E93FC208DF8B7000020E6
:104E50000090319901918DF808009DF8091001F03A
:104E6000FE018DF809103099D1F800C0D1F804E0A6
:104E70008A68CB680C694D6908950794069305927A
:104E8000CDF810E0CDF80CC08A69C9690A91099281
:104E90003699D1F800C0D1F804E08D68CC680A6971
:104EA0004B6910930F920E940D95CDF830E0CDF82C
:104EB0002CC08A69C96912911192389909681391B5
:104EC0002F99D1F800C0D1F804E08D68CC680A6948
:104ED0004B691993189217941695CDF854E0CDF8B4
:104EE00050C08A69C9691B911A922390229021901F
:104EF00020901F901E901D901C902B902A9029901E
:104F00002890279026902590249068462C902E98E3
:104F100040B9FFE72C9890F87B1041F0010180F830
:104F20007B101AE02C982E99D1F800C0D1F804E03B
:104F30008D68CC680A694B69C0F88430C0F880205D
:104F4000C4678567C0F874E0C0F870C08A69C96931
:104F5000C0F88C10C0F88820FFE7379840B9FFE709
:104F60002C9890F89B1041F0010180F89B101CE0F8
:104F70002C983799D1F800C0D1F804E08D68CC683E
:104F80000A694B69C0F8A430C0F8A020C0F89C4062
:104F9000C0F89850C0F894E0C0F890C08A69C96918
:104FA000C0F8AC10C0F8A820FFE7319840688068CE
:104FB000006870B1FFE731984068806848B1FFE74A
:104FC00031984068806801682C9888478DF8B70050
:104FD00003E0FC208DF8B700FFE7319802F0B0F94C
:104FE0009DF9B70032B0B0BDB0B5B2B0DDF8DCC0ED
:104FF000DDF8D8C0319030912F922E93FC208DF89F
:10500000B70000200090319901918DF808009DF8BB
:10501000091001F0FE018DF809103099D1F800C097
:10502000D1F804E08A68CB680C694D69089507944B
:1050300006930592CDF810E0CDF80CC08A69C969D5
:105040000A9109922E99D1F800C0D1F804E08D6838
:10505000CC680A694B6910930F920E940D95CDF8A8
:1050600030E0CDF82CC08A69C96912911192379944
:10507000096813911B901A90199018901790169028
:105080001590149023902290219020901F901E90B4
:105090001D901C9068462C902F9840B9FFE72C98E3
:1050A00090F85B1041F0010180F85B1016E02C983D
:1050B0002F99D1F800C0D1F804E08D68CC680A6956
:1050C0004B6943660266C4658565C0F854E0C0F864
:1050D00050C08A69C969C1668266FFE7369840B9DF
:1050E000FFE72C9890F87B1041F0010180F87B10CD
:1050F0001AE02C983699D1F800C0D1F804E08D68F8
:10510000CC680A694B69C0F88430C0F88020C46755
:105110008567C0F874E0C0F870C08A69C969C0F8D2
:105120008C10C0F88820FFE73198406880680068DC
:1051300070B1FFE731984068806848B1FFE7319867
:105140004068806801682C9888478DF8B70003E0B4
:10515000FC208DF8B700FFE7319802F0F1F89DF9D7
:10516000B70032B0B0BD000010B5B2B03190309190
:105170002F92FC208DF8BB00002001903199029104
:105180008DF80C009DF80D0000F0FE008DF80D006C
:105190003098D0F800C0D0F804E08368C168026994
:1051A00044690994089207910693CDF814E0CDF86C
:1051B00010C08169C0690B900A912F98D0F800C087
:1051C000D0F804E08368C4680169426911921091C3
:1051D0000F940E93CDF834E0CDF830C08169C069EA
:1051E0001390129101A82D9031984068C068006812
:1051F00070B1FFE731984068C06848B1FFE7319867
:105200004068C06801682D9888478DF8BB0003E0AE
:10521000FC208DF8BB00FFE7319802F091F89DF972
:10522000BB0032B010BD000010B5B2B0319030916B
:105230002F922E93FC208DF8B7000020009031991A
:1052400001918DF808009DF8090000F0FE008DF82E
:1052500009003098D0F800C0D0F804E08368C16835
:10526000026944690894079206910593CDF810E00D
:10527000CDF80CC08169C0690A9009912E98D0F8C8
:1052800000C0D0F804E08368C468016942691092E4
:105290000F910E940D93CDF830E0CDF82CC08169BC
:1052A000C069129011912F98D0F800C0D0F804E096
:1052B0008368C4680169426918921791169415931E
:1052C000CDF850E0CDF84CC08169C0691A901991B1
:1052D00068462C9031984068C068006870B1FFE75C
:1052E00031984068C06848B1FFE731984068C068AD
:1052F00001682C9888478DF8B70003E0FC208DF8F2
:10530000B700FFE7319802F01BF89DF9B70032B003
:1053100010BD0000B0B5B2B0DDF8D8C0319030910A
:105320002F922E93FC208DF8B70000200090319929
:1053300001918DF808009DF8091001F0FE018DF82B
:1053400009103099D1F800C0D1F804E08A68CB6820
:105350000C694D690895079406930592CDF810E005
:10536000CDF80CC08A69C9690A9109922E99D1F8C1
:1053700000C0D1F804E08D68CC680A694B691093CD
:105380000F920E940D95CDF830E0CDF82CC08A69BF
:10539000C969129111921A9019901890179016904D
:1053A0001590149013902290219020901F901E90A1
:1053B0001D901C901B9068462C902F9840B9FFE7D9
:1053C0002C9890F8571041F0010180F8571016E022
:1053D0002C982F99D1F800C0D1F804E08D68CC68E2
:1053E0000A694B690366C26584654565C0F850E08B
:1053F000C0F84CC08A69C96981664266FFE7369881
:1054000040B9FFE72C9890F8771041F0010180F83F
:10541000771019E02C983699D1F800C0D1F804E043
:105420008D68CC680A694B69C0F88030C2678467B0
:105430004567C0F870E0C0F86CC08A69C969C0F8F7
:105440008810C0F88420FFE731984068C068006881
:1054500070B1FFE731984068C06848B1FFE7319804
:105460004068C06801682C9888478DF8B70003E051
:10547000FC208DF8B700FFE7319801F061FF9DF93E
:10548000B70032B0B0BD000010B5B2B0319030916D
:105490002F92FC208DF8BB000020019031990291E1
:1054A0008DF80C009DF80D0000F0FE008DF80D0049
:1054B0003098D0F800C0D0F804E08368C168026971
:1054C00044690994089207910693CDF814E0CDF849
:1054D00010C08169C0690B900A912F98D0F800C064
:1054E000D0F804E08368C4680169426911921091A0
:1054F0000F940E93CDF834E0CDF830C08169C069C7
:105500001390129101A82D9031984068806800682E
:1055100070B1FFE731984068806848B1FFE7319883
:105520004068806801682D9888478DF8BB0003E0CB
:10553000FC208DF8BB00FFE7319801F001FF9DF9D9
:10554000BB0032B010BD0000F0B5B1B030902F916B
:10555000FC208DF8BB0001AF3846B021FBF7EDF918
:10556000309802902F98016842688368C468056982
:1055700046690996089507940693059204918169F6
:10558000C0690B900A912D97309840688068006838
:1055900070B1FFE730984068806848B1FFE7309805
:1055A0004068806801682D9888478DF8BB0003E04B
:1055B000FC208DF8BB00FFE7309801F0C1FE9DF99B
:1055C000BB0031B0F0BD000070B59EB0249C239CA0
:1055D000229C1C901B911A921993ADF8624024985A
:1055E000002871D0FFE79DF8500040F001008DF8D1
:1055F00050009DF8500040F002008DF850009DF8DA
:10560000500000F0FB008DF850009DF8500000F0B5
:10561000F7008DF850009DF8500000F0EF008DF875
:1056200050009DF8500000F01F008DF8500006203B
:105630008DF851000020ADF8520015901A980069BD
:10564000169040F2BC01C2F20001D1F8840017901C
:105650001798D1F8801021F07F41FBF76EF9FFE732
:1056600019980021019100910CAD0BAA2946012344
:1056700002F0C0F90C980D99BDF93820179B1A9CBF
:10568000B4F91040103501950094FDF705FFFFE7D0
:1056900000200990199880680A9014A809A905AEFD
:1056A0003246002306F026FF1C981B991A9ABDF873
:1056B0006230239D249C029401950093334600F0B0
:1056C0001BF88DF8770013E01C981B99199ABDF808
:1056D0006230ADF812309DF88C60BDF81230ADF834
:1056E0000C30039B009607F005F98DF87700FFE773
:1056F0009DF977001EB070BD10B58CB0109C0F9C4A
:105700000E9C0A90099108920793ADF81A401098E0
:10571000A0B9FFE70A980999079ABDF81A30ADF8C1
:1057200018309DF83C40BDF81830ADF81430059B9A
:10573000009407F053F98DF82F0037E00798806840
:105740000490BDF910004008ADF80C00BDF912003E
:105750004008ADF80E000998006802900998B0F969
:105760000400BDF8081001EB5000ADF808000998DE
:10577000B0F90600BDF80A1001EB5000ADF80A00C0
:10578000079C109809F0F6F8BDF81A200F9B0399B2
:10579000204607F097F90A9802A907F07DFA8DF8DC
:1057A00007009DF807008DF82F00FFE79DF92F00F7
:1057B0000CB010BD89B0069006980590059838B9D0
:1057C000FFE740F2A810C2F2000020300590FFE78A
:1057D00005984089012121EA10108DF81300EFF39C
:1057E000108007900798029072B602980190019875
:1057F000039000200090FFE70098011D0091D0B9B0
:10580000FFE79DF81300C00770B1FFE7FFE70598B9
:10581000032141720598002141810598418941F099
:1058200010014181FFE7FFE7FFE703980890089820
:1058300080F31088E0E79DF8130000F0010009B044
:105840007047000082B001908DF803109DF80300AE
:10585000019948729DF903004021002848BF60214A
:10586000019841819DF9030002B0704782B0019018
:10587000009102B07047000080B582B0019001989D
:1058800000F01AF88DF8030001989DF9031000F05C
:1058900007F802B080BD000081B0009001B07047F1
:1058A00080B582B001908DF8031001989DF9031026
:1058B000FFF7C8FF02B080BD80B582B001900198AB
:1058C0004068407800F0030002280CD0FFE703286E
:1058D00012D1FFE7019800F0A9FA019800F0C6F88C
:1058E0008DF803000FE0019800F0A0FA019800F095
:1058F0001BF88DF8030006E00198FFF7CDFFFC20B0
:105900008DF80300FFE79DF90300033040B9FFE77E
:10591000002020B9FFE700208DF80300FFE7FFE734
:105920009DF9030002B080BD80B594B0129012982A
:105930001190119838B9FFE740F2A810C2F20000A8
:1059400020301190FFE7FD208DF8430000200F90DC
:105950000E900D900C900B900A9009900890079073
:1059600012980121FFF782FFFFE71198C06928B95B
:10597000FFE7119880698068099006E01198C06976
:105980000168406809900891FFE7FFE71198806976
:1059900005A904AA06F062FE20B9FFE7FD208DF8F4
:1059A0004F005EE0049805901198806905A90CAA43
:1059B000012306F09FFD0790079808B1FFE70BE071
:1059C00042F67350C0F6010042F21F71C0F60101A9
:1059D0004FF4D962FBF748FDBDF81000BDF8201068
:1059E000081AADF82000BDF81200BDF82210081A00
:1059F000ADF82200FFE7079880680B9008A90AA875
:105A0000024605F061FF20B9FFE7FD208DF84F0049
:105A100027E0FFE700200390029001900090079894
:105A200008A96A46012306F065FD08B9FFE713E0FF
:105A3000119840680078C0F34200032807DBFFE7B5
:105A40001198694601F0B2FE8DF8430003E0FC2096
:105A50008DF84300FFE7FFE79DF843008DF84F0006
:105A6000FFE79DF94F0014B080BD000080B59CB0E9
:105A70001A901A981990199838B9FFE740F2A810AF
:105A8000C2F2000020301990FFE700201790169016
:105A90001590149013901290119010900F901A98E6
:105AA0000421FFF7E3FEFFE71998C06928B9FFE773
:105AB000199880698068119006E01998C06901689A
:105AC000406811901091FFE7FFE7199880690DA9D0
:105AD0000CAA06F0C3FD20B9FFE7FD208DF86F008A
